:06260300122342D2AF22B7
:0E25C3008F86E584548060FA438480AF8622C0
:101E2C0053B1D743B22843B11043B21043918053FE
:101E3C00927F53B1FD43B20253B1FE43B201C2B023
:101E4C0053919C53929CD290D291D295D29675ACD0
:101E5C000143B50375AC035392FCE4F5AC43951404
:101E6C0075AC015392EBF5ACC2F8C2F9C2A2C2A494
:101E7C0075AC0253B4BFF5AC75AC0253B47FF5AC82
:101E8C0075AC0743922BF5AC75AC08439280F5AC5E
:011E9C002223
:10239200121E2C438540438590E58554FC4401F58B
:1023A200857584015385F74385205385FB75AC07FA
:0723B20043A410E4F5AC2286
:10234200E58954FC4401F58953A4FE53A3FB538948
:10235200FB5389F775AC0653A4EFE4F5AC758A60BC
:08236200758CF0D28CD2A92287
:03000B000220953B
:10209500C0E0C0F0C083C082C0D075D000C000C011
:1020A50001C002C003C004C005C006C007C28C75CC
:1020B5008A60758CF012254D1221FA1222C0122267
:1020C500EC1225231225D1D28CD007D006D005D00D
:1020D50004D003D002D001D000D0D0D082D083D09C
:0420E500F0D0E03225
:1023E00075C7587F6412248F75E780E4F5E375E4C0
:1023F0004075E50475E21C75E64675E6B900F5E53D
:03240000F5E722DB
:072488007FC812248F7FC8FA
:10248F00EF601100000000000000000000000000DD
:05249F00001F80EC228B
:10246A00AD07AC06ED4C601543E110122488122426
:0E247A00887FC812248FED1D70EA1C80E722B7
:040003008F828E83D7
:03000700E493FF80
:01000A0022D3
:0A18BB008E758F768B778A78897915
:1018C500A2AF9214E47896F608F608763E08F67804
:1018D50096F608F67896E6FE08E6FFC39419EE94A8
:1018E50000502E7899E62FFF18E63EFE1200037E83
:1018F50000789AEEF608EFF67896E6FC08E62400FE
:10190500F58274003CF583EFF006E61870C6068094
:10191500C3E47896F608F6E57A2401FFE433FE7809
:1019250096E6FC08E6FDC39FEC9E502EAB77AA78A1
:10193500A9798D828C831219D5FFE5762DFDE57584
:101945003C5401FC74002DF58274003CF583EFF0E6
:10195500789706E61870C00680BD7F3E122449C2FE
:10196500AF75E78075E50278967600087613E4187A
:10197500F608F67896E6FC08E6FDC39413EC9400A9
:10198500502B08E6FE08E6AA052AF5E4EEF5E37411
:10199500002DF58274003CF583E0F5E275E64675A9
:1019A500E6B900789706E61870C90680C6E4F5E53D
:0619B500F5E7A21492AF59
:0119BB002209
:10244900A2AF92178FE3E4F5E4C2AF75E50375E730
:102459008075E64675E6B900F5E5F5E7A21792AF8E
:012469002250
:0423B900AB07AA06BE
:1023BD00A2AF92178DE28AE38BE4C2AF75E5027589
:1023CD00E78075E64675E6B900E4F5E5F5E7A21791
:0223DD0092AFBD
:0123DF0022DB
:101CE9007F007E3E120003EF64017003021D9F7F97
:101CF9003E122449E4FD7F017E3E1223B9E4FD7FB3
:101D0900027E3E1223B9E4FD7F037E3E1223B9E42D
:101D1900FD7F047E3E1223B9E4FD7F057E3E12233A
:101D2900B9E4FD7F067E3E1223B9E4FD7F077E3EBE
:101D39001223B9E4FD7F087E3E1223B9E4FD7F0931
:101D49007E3E1223B9E4FD7F0A7E3E1223B9E4FDEB
:101D59007F0B7E3E1223B9E4FD7F0C7E3E1223B930
:101D6900E4FD7F0D7E3E1223B9E4FD7F0E7E3E1217
:101D790023B9E4FD7F0F7E3E1223B9E4FD7F107E77
:101D89003E1223B97D017F127E3E1223B97D017F68
:061D9900007E3E1223B99A
:011D9F002221
:10203B007888E6900019F008E6A3F008E6A3F0080C
:10204B00E6A3F07884E6A3F008E6A3F008E6A3F095
:10205B0008E6A3F07892E6A3F008E6A3F008E6A35F
:10206B00F008E6A3F07880E6A3F008E6A3F008E614
:10207B00A3F008E6A3F090002A7401F0FB7A007934
:0A208B0019757A10FF7E3E0218BBA3
:101B59007F117E3E120003EF64016003021C20FD29
:101B69007F117E3E1223B97F017E3E1200037888E1
:101B7900A6077F027E3E1200037889A6077F037EAF
:101B89003E120003788AA6077F047E3E120003787E
:101B99008BA6077F057E3E1200037884A6077F0681
:101BA9007E3E1200037885A6077F077E3E1200035A
:101BB9007886A6077F087E3E1200037887A6077FEE
:101BC900097E3E1200037892A6077F0A7E3E120024
:101BD900037893A6077F0B7E3E1200037894A6072D
:101BE9007F0C7E3E1200037895A6077F0D7E3E127C
:101BF90000037880A6077F0E7E3E1200037881A637
:101C0900077F0F7E3E1200037882A6077F107E3E73
:071C19001200037883A60707
:011C200022A1
:10240300A2AF9217C2AFE4F5E38FE48DE275E50462
:1024130075E78075E64675E6B900F5E5F5E7A217B9
:0224230092AF76
:012425002294
:03005300022292F4
:10229200C0E0E59754026003759702E59754046025
:1022A20008759704D215538EFBE5975401600375A8
:0E22B2009701E59754106003759710D0E03245
:0725FC00438E0443AD0822E9
:102586007D014305044305307F441224030225FCE4
:10000E007F647E0012246A1223E0122603122392CA
:10001E00122586D2AF121CE9121B59120B05120CB7
:10002E009B120E2C120FB8121C2112094B12155FC7
:10003E00121A8D1217AE120785121F0E12036F8041
:01004E00DAD7
:101F7700C10FC10E01A20001720001710001A3008F
:021F8700C11087
:10094B00E4F508E574B40C004003020B0490095F56
:10095B00F82828730209830209920209B6020B04D4
:10096B000209FB020A15020A46020A60020A750214
:10097B000A94020AB3020AEEC2177F0A121E9D7F67
:10098B0000122596020AAF300F0DC20EE4F573C2AA
:10099B000FFFFEFDFC806C201003020B04C21078CD
:1009AB00A3A6717F0A122596020B011224F54003B0
:1009BB00020B04AF72121FDFE57275F019A4FFAEC4
:1009CB00F0E4FCFD12259C0572E572640A701A783E
:1009DB00A2E6F573E4F572D217AF73121E9D7FE892
:1009EB007E0312259875740722122609757404224A
:1009FB001224F54003020B0412004F7F147E007D7E
:100A0B00007C0012259C757402221224F5500FAF46
:100A1B00711222637FF47E01122598757406200CE7
:100A2B0003020B04201203020B04D3E5539404744A
:100A3B008094805003020B04020AE61224F5500D39
:100A4B00E4FF1222637F32122596757405200F0383
:100A5B00020B04804F1224F54003020B04D20E7FCD
:100A6B00887E13122598757408221224F5500FAF47
:100A7B00711222637FF47E0112259875740978A395
:100A8B00E6B57103300F72801B1224F5500DE4FF95
:100A9B001222637F1412259675740A78A3E6B5713A
:100AAB0003300F55757401221224F550117FE87E27
:100ABB0003122598D217AF73121E9D75740878A375
:100ACB00E6B57103300F03757401300C2C3012290D
:100ADB00D3E553940374809480401EE478A4F67598
:100AEB00740B2278A4E665536009A653C217AF5363
:090AFB00021E9D20120375740512
:010B040022CE
:022539008F7F92
:10253B00E4FF122137EF857FF084AFF0EF7002AF2D
:01254B007F10
:01254C00226C
:062596007E007D007C00C8
:09259C008F6F8E6E8D6D8C6C2228
:1024F500E4FFFEFDFCAB6FAA6EA96DA86CC3121AB2
:07250500437002D322C32240
:1021FA00E4FFFEFDFCAB6FAA6EA96DA86CD3121AA0
:10220A00434018E56F24FFF56FE56E34FFF56EE580
:10221A006D34FFF56DE56C34FFF56C78A206E66463
:06222A000770027601229C
:0925EB00300E03AF73227F0022C1
:0825F400D20FE4F573C20E22C0
:021E9D00AE078E
:101E9F00E4FF3017010FEE640A7001FFEEB40A0081
:101EAF005055901EB8F8282873021ED6021EDB026A
:101EBF001EE0021EE5021EEA021EEF021EF4021EC3
:101ECF00F9021EFE021F034307EE802B43074280D9
:101EDF00264307DC80214307D6801C4307728017F7
:101EEF004307B680124307BE800D4307C2800843E5
:0E1EFF0007FE80034307F61225C3C2B1D2B11D
:011F0D0022B1
:021FDF00AE074B
:101FE100E4FFEEB40A00504A901FF0F8282873026B
:101FF100200E0220150220100220150220170220B7
:102001001C02202102202602202B022015800743DA
:102011000704801E80194307808017430720801220
:10202100430740800D4307088008430702800343AC
:0920310007101225C3C2B1D2B19F
:01203A002283
:02226300AE07C4
:10226500E4FFEE24BE601124FB601224EE6013240B
:102275000770124307A0800D4307C0800843070677
:0C228500800343070C1225C3C2B1D2B184
:01229100222A
:05260F00D2108F7122C2
:101F8900055D0000000000015B00015C00045600D3
:061F9900000000015A00E7
:101A8D00E4F508F509F50AE55B14601E14602A14E7
:101A9D007003021B4724036003021B581225617F4C
:101AAD00001225B4755C01021B5512250C40030272
:101ABD001B581225A5755B0222E4F508F509744142
:101ACD007B52122426EF250AF50A743D7B4212241F
:101ADD0026EF250AF50A74302509F8E6FD7B47AF98
:101AED005C12242DEF250AF50A74382509F8E6FD58
:101AFD007B59AF5C12242DEF250AF50A0509E5097E
:101B0D0070020508C39404E5086480948040AF0515
:101B1D005CE55C64117002F55CE55C14F55AD3E587
:101B2D000A940074809480500BC3E55A940D748010
:101B3D0094804017E4F50A755B037F0512236AC292
:0B1B4D0097D2977F011225B4755B0151
:011B5800226A
:10256100755DFF755EFF755FFFE4F560F5617F05E1
:0325710002236AD8
:0F25A500755DFF755EFF755FFFE4F560F5612200
:0625B4007E007D007C00AA
:0925BA008F598E588D578C562262
:10250C00E4FFFEFDFCAB59AA58A957A856C3121AF2
:07251C00437002D322C32229
:1022C000E4FFFEFDFCAB59AA58A957A856D3121A31
:1022D000434018E55924FFF559E55834FFF558E512
:0C22E0005734FFF557E55634FFF5562241
:072426002509F8E6FDAF5C9B
:10242D008F0B8D0C8B0DAF0C1225DFEFB50B0AAD9D
:0C243D000DAF0C1211417F01227F002224
:0B25DF007B007A00790E120056AF0E50
:0125EA0022CE
:021141008D0E11
:10114300E4F51174FFF512F513E4F514F515FB7AC4
:1011530000790F120056AA10E47F01FEFDFCC37450
:1011630010950FF9F8121A54EF4215EE4214E514D4
:101173004260E5154261E50E24BE601F24FB601149
:1011830024EE60222407702DEA75F003A4F5118084
:1011930024EA75F003A404F511801AEA75F003A498
:1011A3002402F511800FEA75F003A4F5112401F56B
:1011B30013E433F512E511FB7A00C39408748094A9
:1011C300805018E47F01FEFDFCC374079511F9F804
:1011D300121A54121A36EF525D8044C3EB9410EA8C
:1011E300648094805018E47F01FEFDFCC3740F9566
:1011F30011F9F8121A54121A36EF525E8021C3E520
:10120300119418748094805016E47F01FEFDFCC392
:1012130074179511F9F8121A54121A36EF525FD354
:10122300E51394FFE5126480947F4024E51394084A
:10123300E512648094805018C374079513F9E47F12
:1012430001FEFDFCA801121A54121A36EF525D2258
:10125300D3E51394FFE5126480947F4024E513944F
:1012630010E512648094805018C3740F9513F9E449
:101273007F01FEFDFCA801121A54121A36EF525ECA
:1012830022D3E51394FFE5126480947F4023E51392
:101293009418E512648094805017C374179513F95A
:1012A300E47F01FEFDFCA801121A54121A36EF5214
:0112B3005FDB
:0112B4002217
:060056008B168A178918C1
:10005C00EFFD7C00C39406748094805008751A01DF
:10006C008F19020356D3ED9405EC648094804013F1
:10007C00ED940CEC648094805009751A0CC3740BCD
:10008C00020176ED640C4C7008751A0BF51902031D
:10009C0056D3ED940CEC648094804017ED9413ECE3
:1000AC0064809480500D751A0AEFF404FFC374F346
:1000BC00020176EFFDD39412748094804012ED947B
:1000CC0019748094805009751A09C374180201764A
:1000DC00EFFD7C0064197008751A08F519020356B7
:1000EC00D3ED9419EC648094804016ED9420EC646C
:1000FC00809480500C751A07EFF404FFC374E680EB
:10010C0069EFFDD3941F748094804011ED94267494
:10011C008094805008751A06C37425804DEFFD7CC1
:10012C000064267008751A05F519020356D3ED9470
:10013C0026EC648094804016ED942DEC64809480C1
:10014C00500C751A04EFF404FFC374D9801CEFFD36
:10015C007C00D3942C748094804015ED943374807F
:10016C009480500C751A03C374329FF51902035610
:10017C00EF64337008751A02F519020356EF24CC9C
:10018C00B4340040030203569001A275F003A4C5D9
:10019C008325F0C5837302023E0202430202490228
:1001AC00024F02025502025B020260020266020268
:1001BC006C02027202027702027C02028202028745
:1001CC0002028C02029102029A02029F0202A40213
:1001DC0002A90202AE0202B30202B80202BD02027E
:1001EC00D60202DB0202E00202E50202C20202C7F0
:1001FC000202CC0202D10202EA0202F20202FA026A
:10020C00030202030A02030F02031402031902037E
:10021C001E02032302032802032D020332020337BA
:10022C0002033C02034102031902034602034B0280
:10023C000350751A028051751A02020305751A02D1
:10024C000202FD751A020202F5751A020202ED7520
:10025C001A0B8034751A0B020305751A0B0202FD7A
:10026C00751A0B0202F5751A0B8076751A08801830
:10027C00751A08020305751A088076751A088069C4
:10028C00751A08805C751A05751901020356751AE2
:10029C00058066751A058059751A05804C751A0506
:1002AC00803F751A0D803A751A0D803D751A0D80B8
:1002BC0040751A0D8043751A0E8026751A0E80290A
:1002CC00751A0E802C751A0E802F751A0F801275E8
:1002DC001A0F8015751A0F8018751A0F801B751A56
:1002EC00107519058064751A10751904805C751ADF
:1002FC00107519038054751A10751902804C751AF3
:10030C00018044751A02803F751A03803A751A04ED
:10031C008035751A0A8030751A0B802B751A0C8073
:10032C0026751A0E8021751A07801C751A088017FD
:10033C00751A098012751A0F800D751A05800875CB
:10034C001A068003751A10751906AB16AA17A91888
:10035C00E51A121A02AB16AA17A918900001E51992
:03036C00021A145E
:10236A00E4F50BF50C1FF50B8F0CC3E50B64809499
:10237A00804014745D250CF8E6FF1225C3E50C15A0
:07238A000C70E7150B80E366
:012391002229
:101F9F00012B00043400000000042C00000000049A
:0B1FAF002300000000042700000000D9
:10155F00E53C14606F147003021601147003021639
:10156F002F14700302165D14700302168B2405608E
:10157F0003021698E4F52BC3E52B94047480948032
:10158F00503C7488252BF8E6FD7B52AF2B12058457
:10159F007484252BF8E6FD7B42AF2B1205847492E1
:1015AF00252BF8E6FD7B47AF2B1205847480252B86
:1015BF00F8E6FD7B59AF2B120584052B80B9E4F5B6
:1015CF002B0216957488252BF97434252BF8E667B2
:1015DF00601C7488252BF8E6FF7434252BF8A607BA
:1015EF007488252BF8E6FD7B52AF2B120584753CD2
:1015FF0002227484252BF9742C252BF8E667601CC6
:10160F007484252BF8E6FF742C252BF8A607748419
:10161F00252BF8E6FD7B42AF2B120584753C032288
:10162F007492252BF97423252BF8E667601C7492AE
:10163F00252BF8E6FF7423252BF8A6077492252B8C
:10164F00F8E6FD7B47AF2B120584753C04227480AE
:10165F00252BF97427252BF8E667601C7480252B42
:10166F00F8E6FF7427252BF8A6077480252BF8E6DC
:10167F00FD7B59AF2B120584753C0522052BE52BFD
:0A168F0064047002F52B753C012283
:10058400EB24BE604824FB700302066424EE70036F
:100594000206F724076003020784EDFB7A00700566
:1005A400EF24488022C3EB9439EA64809480500796
:1005B40074412FF8A60522EDD394387480948050AA
:1005C40003020784EF2458FE7441020780EDFB7A8E
:1005D400007009EF2450FE743D020780EB240DFBEC
:1005E400E43AFAD3EB9433EA648094805009ED241E
:1005F4000DFE743D020780D3EB9433EA648094804B
:10060400401BED240DFBE433FAC3EB9441EA648010
:1006140094805009ED24D9FE743D020780ED240D29
:10062400FBE433FAD3EB9440EA648094804013EB08
:100634009446EA648094805009ED2405FE743D02DA
:100644000780ED240DFBE433FAD3EB9445EA648090
:1006540094805003020784EF245CFE743D020780FB
:10066400EDFB7A007009EF244CFE7430020780EB36
:10067400241AFBE43AFAD3EB9433EA64809480506E
:1006840009ED241AFE7430020780D3EB9433EA6434
:10069400809480401BED241AFBE433FAC3EB944EA0
:1006A400EA648094805009ED24E6FE7430020780E9
:1006B400ED241AFBE433FAD3EB944DEA648094807E
:1006C4004013EB9453EA648094805009ED240AFEAD
:1006D4007430020780ED241AFBE433FAD3EB94520E
:1006E400EA648094805003020784EF2460FE74302F
:1006F400020780EDFB7A007008EF2454FE74388002
:100704007BEB2427FBE43AFAD3EB9433EA6480943A
:10071400805008ED2427FE74388061D3EB9433EACB
:1007240064809480401AED2427FBE433FAC3EB94ED
:100734005BEA648094805008ED24F3FE7438803CB6
:10074400ED2427FBE433FAD3EB945AEA64809480D3
:100754004012EB9460EA648094805008ED240FFE0C
:1007640074388018ED2427FDE433FCD3ED945FEC5A
:1007740064809480400AEF2464FE74382FF8A6063F
:010784002252
:101FBA00019100C1000488000000000484000000B0
:0D1FCA0000049200000000048000000000F0
:100B0500E567B409004003020C9A900B16F82828F3
:100B150073020B31020B3A020B56020B68020B8172
:100B2500020BAF020C2B020C4A020C68D206756749
:100B3500017F528072200603020C9AC2067B007A5E
:100B45000079881221844003020C80D2047F428000
:100B550056E54E641A6003020C9AF54E1225F4759B
:100B65006703221225EBD3EF940074809480500321
:100B7500020C9A1225EB8F6B756704227B007A00B5
:100B85007988AF6B1216995017756705D211AD6B41
:100B95007F521212B54003020C9A756706C21122E4
:100BA500756701D2047F4202260FE54E640D70176A
:100BB500301314C211C2137888E6FFAD6B122230D0
:100BC5008F68E4F56A805BE54E641A70173013147C
:100BD500C211C2137889E6FFAD6B1222308F68759A
:100BE5006A01803EE54E64277017301314C211C2A6
:100BF50013788AE6FFAD6B1222308F68756A028022
:100C050021E54E64346003020C9A201303020C9A0A
:100C1500C211C213788BE6FFAD6B1222308F687557
:100C25006A0375670622D3E568940074809480E4AE
:100C3500400BF54E7D5212257475670722F54ED28D
:100C4500117567052230034DE56B64067002056971
:100C5500300504C2050569E56864397002056975E2
:100C6500670822D3E569940074809480401D7B0059
:100C75007A0079881221844006156975670222D2A7
:100C8500047F4212260FE4F5698007D2047F4212E1
:060C9500260F7567012225
:100E2C00E566B409004003020FB7900E3DF8282880
:100E3C0073020E58020E5D020E73020E85020E9E98
:100E4C00020ECC020F48020F67020F85C204020F7C
:100E5C00B4200403020FB7C2047B007A0079841219
:100E6C0021844055020F9DE54E640E6003020FB7BE
:100E7C00F54E1225F4756603221225EBD3EF940080
:100E8C00748094805003020FB71225EB8F6B75663C
:100E9C0004227B007A007984AF6B12169950177577
:100EAC006605D211AD6B7F421212B54003020FB72B
:100EBC00756606C21122756601D2017F4702260FA4
:100ECC00E54E640E7017301314C211C2137884E609
:100EDC00FFAD6B1222308F68E4F56A805BE54E64DF
:100EEC001C7017301314C211C2137885E6FFAD6B5A
:100EFC001222308F68756A01803EE54E642A7017A5
:100F0C00301314C211C2137886E6FFAD6B12223077
:100F1C008F68756A028021E54E64386003020FB752
:100F2C00201303020FB7C211C2137887E6FFAD6B13
:100F3C001222308F68756A0375660622D3E56894B1
:100F4C000074809480E4400BF54E7D42122574753C
:100F5C00660722F54ED2117566052230034DE56BFE
:100F6C00640670020569300504C2050569E568640C
:100F7C00397002056975660822D3E569940074809E
:100F8C009480401D7B007A007984122184400615E0
:100F9C006975660222D2017F4712260FE4F569803B
:0C0FAC0007D2017F4712260F7566012254
:100C9B00E563B409004003020E2B900CACF8282836
:100CAB0073020CC7020CCC020CE2020CF4020D0D09
:100CBB00020D3B020DB7020DDB020DF9C201020E54
:100CCB0028200103020E2BC2017B007A00799212BD
:100CDB0021844055020E11E54E640F6003020E2B6A
:100CEB00F54E1225F4756303221225EBD3EF940016
:100CFB00748094805003020E2B1225EB8F6B75635F
:100D0B0004227B007A007992AF6B121699501775FB
:100D1B006305D211AD6B7F471212B54003020E2B48
:100D2B00756306C21122756301D2027F5902260F29
:100D3B00E54E640F7017301314C211C2137892E68C
:100D4B00FFAD6B1222308F68E4F56A805BE54E6471
:100D5B001E7017301314C211C2137893E6FFAD6BDC
:100D6B001222308F68756A01803EE54E642D701734
:100D7B00301314C211C2137894E6FFAD6B122230FC
:100D8B008F68756A028021E54E643C6003020E2B6E
:100D9B00201303020E2BC211C2137895E6FFAD6B25
:100DAB001222308F68756A0375630622D3E5689447
:100DBB0000748094804010E4F54EAB687D47AF6AB9
:100DCB0012257875630722D211E4F54E756305225F
:100DDB0030034DE56B640670020569300504C205EE
:100DEB000569E56864397002056975630822D3E506
:100DFB0069940074809480401D7B007A0079921274
:100E0B0021844006156975630222D2027F5912268E
:100E1B000FE4F5698007D2027F5912260F75630123
:010E2B0022A4
:100FB800E564B409004003021140900FC9F82828DD
:100FC80073020FE4020FE9020FFF02101102102A48
:100FD8000210580210CC0210F002110EC2020211C7
:100FE8003D200203021140C2027B007A0079801280
:100FF80021844055021126E54E64406003021140E9
:10100800F54E1225F4756403221225EBD3EF9400F4
:101018007480948050030211401225EB8F6B756425
:1010280004227B007A007980AF6B121699501775ED
:101038006405D211AD6B7F591212B54003021140FD
:10104800756406C21122756401D2067F5202260F0A
:10105800E54E64107015301312C2117880E6FFADAA
:101068006B1222308F68E4F56A8055E54E64207073
:1010780015301312C2117881E6FFAD6B1222308F42
:1010880068756A01803AE54E64307015301312C2F3
:10109800117882E6FFAD6B1222308F68756A028084
:1010A8001FE54E6440600302114020130302114003
:1010B800C2117883E6FFAD6B1222308F68756A0320
:1010C80075640622D3E5689400748094804010E427
:1010D800F54EAB687D59AF6A12257875640722D240
:1010E80011E4F54E7564052230034DE56B64067016
:1010F800020569300504C2050569E56864397002AE
:10110800056975640822D3E5699400748094804069
:101118001D7B007A00798012218440061569756468
:101128000222D2067F5212260FE4F5698007D20602
:091138007F5212260F756401229A
:101699008F08EF6406705D1219BC2406FFE433FE5F
:1016A900C3EF943AEE64809480404590000112198A
:1016B900D52406FFE433FEC3EF943AEE64809480A8
:1016C900402E9000021219D52406FFE433FEC3EF21
:1016D900943AEE6480948040179000031219D5243F
:1016E90006FFE433FEC3EF943AEE6480948050021F
:1016F900D322C3221219BCFF7E00701A9000011276
:1017090019D570129000021219D5700A90000312AF
:1017190019D57002C322D3EF9400EE6480948040FF
:10172900141219BC2508FFE433FEC3EF943AEE64A2
:10173900809480406C9000011219D5FF7E00D394EB
:1017490000748094804012EF2508FFEE33FEC3EF4A
:10175900943AEE6480948040489000021219D5FFB3
:101769007E00D39400748094804012EF2508FFEE28
:1017790033FEC3EF943AEE648094804024900003D2
:101789001219D5FF7E00D39400748094804014EF21
:101799002508FFEE33FEC3EF943AEE64809480503F
:0517A90002D322C3225F
:102184001219BCD3943874809480402F90000112AB
:1021940019D5D39438748094804020900002121989
:1021A400D5D394387480948040119000031219D5CB
:0D21B400D39438748094804002D322C3225B
:10223000EFFB7A007008ED640670037F0122D3EB98
:102240009400EA648094804017EDFBEF2BFBE433AD
:10225000FAC3EB943AEA648094805004EF2DFF2295
:032260007F0022DA
:1012B500E478A0F608F6EF24BE602224FB6034240F
:1012C500EE60462407705A7888E6789CF67889E6B9
:1012D500789DF6788AE6789EF6788B80407884E665
:1012E500789CF67885E6789DF67886E6789EF67899
:1012F50087802A7892E6789CF67893E6789DF6784A
:1013050094E6789EF6789580147880E6789CF67851
:1013150081E6789DF67882E6789EF67883E6789F72
:10132500F6ED640660030213AE789CE6701308E6DA
:10133500700F08E6700B08E67007756801F56AD34B
:1013450022E478A1F678A1E6FFC394047480948022
:10135500503D749C2FF8E6FF7E00601BD39400740B
:101365008094804025EF2406FFEE33FEC3EF943AC8
:10137500EE64809480501378A00608E6F56A18E6B6
:10138500D394017480948040012278A10680B678B8
:10139500A0E66401706F749C256AF8E6FF70057518
:1013A5006801D322EF24068058E478A1F678A1E6F7
:1013B500FFC39404748094805039749C2FF8E6FF21
:1013C5007E00D39400748094804023ED2FFFEE338C
:1013D500FEC3EF943AEE64809480501278A006081C
:1013E500E6F56A18E694017480948040012278A19C
:1013F5000680BA78A0E66401700B749C256AF8E64D
:061405002DF568D322C39F
:01140B0022BE
:10036F007891E6B407004003020583900381F828D3
:10037F0028730203960203990203B502043702049D
:10038F00B20204E30205200205732007030205836E
:10039F00C203C207D200E4788CF608F6C205F565F1
:1003AF007562050204AD788DE61846600302058379
:1003BF00788FE624BE602224FB603424EE6046244E
:1003CF00077056788EE62488F9E7C37890965049DF
:1003DF00788EE62488F8068040788EE62484F9E744
:1003EF00C37890965033788EE62484F806802A7866
:1003FF008EE62492F9E7C3789096501D788EE62406
:10040F0092F8068014788EE62480F9E7C3789096E8
:10041F005007788EE62480F806122609788C76002D
:10042F000876C87891760322788DE6184660030225
:10043F00058312004F788FE624BE601C24FB6028D2
:10044F0024EE60342407703E788EE62488F9E7782E
:10045F0090667032D203802E788EE62484F9E77886
:10046F0090667022D203801E788EE62492F9E77888
:10047F0090667012D203800E788EE62480F9E778AA
:10048F0090667002D20330030EC203788C76000898
:10049F0076147891760422788C76000876C8789155
:1004AF00760222788DE618466003020583788FE680
:1004BF00FF18E6FD12140CD3E56594007480948048
:1004CF004009E4788CF608F602057FD203C205C214
:1004DF0000020573788DE618466003020583122625
:1004EF0009E56524BE601024FB601024EE60102423
:1004FF000770127488800A74848006749280027464
:10050F00802562F816788C760008766478917606E6
:10051F0022788DE61846705C12004FE56524BE60A8
:10052F001824FB602024EE60282407702E74882581
:10053F0062F8E67026D203802274842562F8E67092
:10054F001AD203801674922562F8E6700ED20380D9
:10055F000A74802562F8E67002D20330030BD203CF
:10056F00D205C2007891760122788C7600087664E5
:05057F007891760522D1
:02140C00AE0729
:10140E00E4FCFFEE24BE605E24FB70030214BD24D8
:10141E00EE70030215062407600302154CE4FCEC83
:10142E00C3940474809480400302154C743D2CF8D0
:10143E00E6FE74412DF8E6FBB50605756542801F84
:10144E0074302CF8E6FEB5030575654780117438C7
:10145E002CF8E6FE74412DF8E6B506077565598C35
:10146E0062AF060C80B9E4FCECC3940474809480E3
:10147E00400302154C74412CF8E6FE743D2DF8E63F
:10148E00FBB50605756552801F74302CF8E6FEB567
:10149E000305756547801174382CF8E6FE743D2DF2
:1014AE00F8E6B506077565598C62AF060C80B9E48F
:1014BE00FCECC3940474809480400302154C743D7C
:1014CE002CF8E6FE74302DF8E6FBB5060575654280
:1014DE00801F74412CF8E6FEB50305756552801128
:1014EE0074382CF8E6FE74302DF8E6B506077565EF
:1014FE00598C62AF060C80B9E4FCECC39404748082
:10150E009480503A743D2CF8E6FE74382DF8E6FBC4
:10151E00B50605756542801F74302CF8E6FEB503DE
:10152E0005756547801174412CF8E6FE74382DF868
:10153E00E6B506077565528C62AF060C80BC1220AC
:10154E00E9D3EF9400748094804005E4F562F5656C
:01155E00226A
:1020E900E4F9EFD3940074809480403FEF24F760C3
:1020F9002024FB602024F8602024FB602024F86061
:102109002024FB602024F86020242F701E79018090
:102119001A79098016790E80127916800E791B803A
:0D2129000A79238006792880027930AF0101
:012136002286
:04257400AB68AF6A37
:0E257800D207788FA60518A6077890A6032232
:10254D00D3788DE6940018E69400400708E6161837
:04255D0070011622D1
:041FD700C111C11360
:1017AE00E54D14601E146041146079147003021824
:1017BE0070240460030218BAE4F54EF54A75500C15
:1017CE000218B70550AF501224A4E55014FF12248E
:1017DE00BFE5506411700475500C22E4754805F590
:1017EE0047F546F545754D0222E4FFFEFDFCAB487C
:1017FE00AA47A946A845C3121A4360030218BAF5B0
:10180E00511224DA8F51D3EF9400748094804011DA
:10181E0085504FE4754864F547F546F545754D031B
:10182E00220218B7E4FFFEFDFCAB48AA47A946A862
:10183E0045C3121A4370751224DAEFB551227D0199
:10184E00E4FF122318E47548DC754705F546F545A7
:10185E00754D04D212F553E5508551F0A4F54A2288
:10186E008047E4FFFEFDFCAB48AA47A946A845C346
:10187E00121A4370371224DAEFB55113E47548B8D3
:10188E0075470BF546F54505537D01FF022318C23A
:10189E0012D3E5539400748094804005E4F54E8095
:0D18AE0008E5508551F0A4F54E754D01225E
:1024A400EF24F2600D14600D14600D2403700BD240
:0B24B400F922D2F822D2A422D2A222E8
:1024BF00EF24F2600D14600D14600D2403700BC235
:0B24CF00F922C2F822C2A422C2A222FD
:1024DA003090037F01223091037F02223095037FDF
:0B24EA0003223096037F04227F0022B3
:1022EC00E4FFFEFDFCAB48AA47A946A845D3121A49
:1022FC00434018E54824FFF548E54734FFF547E52A
:0C230C004634FFF546E54534FFF5452258
:10078500E555121A6707D00007D60108C00208D838
:100795000309030409440507F40D08200E08560F44
:1007A500088A1007FE1A082E1C08631E08972008E1
:1007B5000827083C2A08702D08A430081234084977
:1007C50038087D3C08B1400000094AE4F5540209A7
:1007D5004720110302094A20120302094AD3E54AB8
:1007E5009400748094804003854A55E4F54A227844
:1007F50088E6F549E4F54B801C7889E6F549754BA3
:10080500018012788AE6F549754B028008788BE6F7
:10081500F549754B03754C520208BC7884E6F549D9
:10082500E4F54B754C420208BC7885E6F549754BF5
:1008350001754C420208BC7886E6F549754B027590
:100845004C4280737887E6F549754B03754C4280B9
:10085500667892E6F549E4F54B754C4780597893EF
:10086500E6F549754B01754C47804C7894E6F5499A
:10087500754B02754C47803F7895E6F549754B03F6
:10088500754C4780327880E6F549E4F54B754C594F
:1008950080257881E6F549754B01754C59801878A6
:1008A50082E6F549754B02754C59800B7883E6F560
:1008B50049754B03754C5975550222301213AB4CD3
:1008C5007D3AAF4B120584755250755503E4F554C6
:1008D50022806FE552700FAB4CAD49AF4B120584CA
:1008E500755250755504201208E553702FD21380A8
:1008F5002BD3E55394007480948040498034E552AD
:100905007011AB4C7D3AAF4B12058475525075553D
:10091500030554201211E5537002D213AB4CAD49B7
:10092500AF4B120584801BD3E553940074809480EB
:100935004013AB4CAD49AF4B1205847555052220CC
:06094500120375550122AA
:0E25D100D3E55294007480948040021552228B
:10231800200C26EDFB7A00D394017480948040074A
:10232800D2168D1F8F1D22EB64014A700CD2B07536
:0A2338001E05D217AF1D1221C122AD
:06260900200C02D2B022F9
:03004F00C2B0221A
:101F0E00E51E1460121460241460231460331460F0
:101F1E004C24057053804E30164EAF1FD3EF9400F5
:101F2E00748094804042C216751E02228022E51CE7
:101F3E00451B7034C217AF1D1221C1C2B0751E04ED
:101F4E0022E51C451B7021151FAF1FEF7002801577
:101F5E00D217AF1D1221C1D2B0751E0322E51C454A
:091F6E001B7005C2B0751E0122B2
:1021C100301716EF14600E14600D2402702A751B6F
:1021D10000751CC822800D8012EF14600E1460126D
:1021E10024027014751B01751C9022751B03751C4C
:0921F1002022751B06751C40221A
:10252300D3E51C9400E51B648094804008E51C15EA
:062533001C7002151B22C2
:031FDB0001A5005D
:101C210078A5E614601914603724026003021CE8E9
:101C3100C20CC20BC20AC208C209C20D021CE420B6
:101C41001203021CE8D3E55394037480948050037B
:101C5100021CE8E5508551F0A478A6F61876022218
:101C6100301203021CE8E55324FB607524FD7073F8
:101C710078A6E6FF7E00640D600FEF641A600AEF3C
:101C810064276005EF64347004B20B8056EF640E74
:101C91004E6012EF641C4E600CEF642A4E6006EF3A
:101CA10064384E7004B20A803AEF640F4E6012EF4E
:101CB100641E4E600CEF642D4E6006EF643C4E7066
:101CC10004B208801EEF64104E6012EF64204E6073
:101CD1000CEF64304E6006EF64404E7006B209802E
:081CE10002B20C78A576012285
:03000000021DA03E
:0C1DA000787FE4F6D8FD7581A6021DE7EF
:1019BC00BB010689828A83E0225002E722BBFE0229
:0919CC00E32289828A83E493225C
:1019D500BB010CE58229F582E5833AF583E02250C7
:1019E50006E92582F8E622BBFE06E92582F8E22211
:0D19F500E58229F582E5833AF583E493222B
:101A0200BB010689828A83F0225002F722BBFE01C3
:021A1200F322BD
:101A1400F8BB010DE58229F582E5833AF583E8F008
:101A2400225006E92582C8F622BBFE05E92582C8B4
:021A3400F2229C
:0D1A3600CFF4CFCEF4CECDF4CDCCF4CC2245
:101A4300EB9FF5F0EA9E42F0E99D42F0E89C45F0F9
:011A53002270
:101A5400E8600FEFC333FFEE33FEED33FDEC33FCF0
:031A6400D8F12294
:101A6700D083D082F8E4937012740193700DA3A30E
:101A770093F8740193F5828883E473740293686022
:061A8700EFA3A3A380DF22
:10213700AC7BAD7CAE7DAF7E7810EC4D4E4F70041E
:102147007CA57DA5C3EC13FCED13FDEE13FEEF1389
:10215700FF5010EC64CCFCED644CFDEE644EFEEFDA
:1021670064CEFFD8DF8C7B8D7C8E7D8F7EEE547F97
:0D217700FE228E7B8F7C74A5F57DF57E2207
:101DAC0002000EE493A3F8E493A34003F68001F23F
:101DBC0008DFF48029E493A3F85407240CC8C33338
:101DCC00C4540F4420C8834004F456800146F6DF07
:101DDC00E4800B0102040810204080901F77E47E01
:101DEC00019360BCA3FF543F30E509541FFEE493FC
:101DFC00A360010ECF54C025E060A840B8E493A3C3
:101E0C00FAE493A3F8E493A3C8C582C8CAC583CAED
:101E1C00F0A3C8C582C8CAC583CADFE9DEE780BEA5
:011FDE000002
:00000001FF
